:020000040001F9
:1040000038340020814201009342010095420100B2
:1040100000000000000000000000000000000000A0
:1040200000000000000000000000000097420100B6
:104030000000000000000000994201009B420100C6
:104040009D4201009D4201009D4201009D420100F0
:104050009D420100000000009D4201009D420100C0
:104060009D420100CD4A01009D420100DB48010054
:104070009D4201009D4201009D4201009D420100C0
:104080009D4201006F7901009D4201009D420100A7
:10409000917901009D4201003B7101009D420100A8
:1040A0009D4201009D420100000000000000000050
:1040B0000000000000000000000000000000000000
:1040C00000F002F800F040F80CA030C808382418BE
:1040D0002D18A246671EAB4654465D46AC4201D140
:1040E00000F032F87E460F3E0FCCB6460126334232
:1040F00000D0FB1AA246AB463343184738410000B4
:1041000058410000103A02D378C878C1FAD8520753
:1041100001D330C830C101D504680C60704700007D
:104120000023002400250026103A01D378C1FBD8D3
:10413000520700D330C100D50B6070471FB5C04691
:10414000C0461FBD10B510BD03F0BBFF1146FFF701
:10415000F5FF00F02DF903F0D3FF03B4FFF7F2FFF2
:1041600003BC03F0D7FF0000401E00BF00BF00BF2C
:1041700000BF00BF00BF00BF00BF00BF00BF00BF47
:1041800000BFF1D170470000401E00BF00BF00BF5C
:1041900000BF00BF00BF00BF00BF00BF00BF00BF27
:1041A00000BFF1D170470000401E00BF00BF00BF3C
:1041B00000BF00BF00BF00BF00BF00BF00BF00BF07
:1041C00000BFF1D170470000401E00BF00BF00BF1C
:1041D00000BF00BF00BF00BF00BF00BF00BF00BFE7
:1041E00000BFF1D170470000401E00BF00BF00BFFC
:1041F00000BF00BF00BF00BF00BF00BF00BF00BFC7
:1042000000BFF1D170470000401E00BF00BF00BFDB
:1042100000BF00BF00BF00BF00BF00BF00BF00BFA6
:1042200000BFF1D170470000401E00BF00BF00BFBB
:1042300000BF00BF00BF00BF00BF00BF00BF00BF86
:1042400000BFF1D17047000070B505460C46164618
:1042500002E00FCC0FC5103E102EFAD2082E02D36A
:1042600003CC03C5083E042E07D301CC01C5361F7D
:1042700003E021782970641C6D1C761EF9D270BD94
:104280000A48026803210A43026009488047094836
:104290000047FEE7FEE7FEE7FEE7FEE7FEE7000079
:1042A00005480649064A074B7047000024050040B0
:1042B0006D430100C1400100382400203834002043
:1042C000382C0020382C00203248334908607047D1
:1042D0003248008CC0B2012812D13048808C0007CF
:1042E000000F00280CD12D48806AF021084040289A
:1042F00006D12A48C06A0840002801D10120704731
:104300000020FCE72548008CC0B201282CD12348AE
:10431000808C0007000F002826D12048806AF021F9
:104320000840002806D11D48C06A0840002801D175
:10433000012070471948806AF0210840102806D1F2
:104340001648C06A0840002801D10120F1E713484F
:10435000806AF0210840302806D11048C06A084021
:10436000002801D10120E4E70020E2E710B5FFF7C3
:10437000C9FF002805D00A480A494860C8130A49FD
:104380008861FFF7A5FF002802D001200749886057
:1043900010BD00000024F40000200020C00F00F039
:1043A000DFFF07C000050040006C00400006004031
:1043B0004648FFF7D9FE00F045FC00F04EFC00F047
:1043C000ABFE00F082FE00F05FFC00F0D5FC00F0D8
:1043D00096FC00F025FD00F0E5FC00F0A5F900F0EA
:1043E000D7FB00F0EDFB00220121104600F092FA0D
:1043F000374908600846006801F0FDFD002803D039
:10440000102000F082F804E0102000F07EF800BFD9
:10441000FEE72F48006801F07DFE102000F06EF8E6
:104420001E2000F03FF8062000F03CF8072000F0C6
:1044300039F81D2000F036F8042000F033F805208C
:1044400000F030F81E2000F03BF8062000F038F8AD
:10445000072000F035F81D2000F032F8042000F0AD
:104460002FF8052000F02CF8002000F01BF81C208D
:1044700000F018F8002000F023F81C2000F020F8CD
:10448000002000F018F81C2000F015F801F07AFE6A
:1044900001F030FA00F07CFB00F092FB00BF01F06D
:1044A0008EF8FCE701210522120707231B02D21810
:1044B0008300D150704701218140064A91607047C6
:1044C00001218140034AD1607047000040420F0043
:1044D000042000200005005070B5024610460B462F
:1044E00008E0012405252D0707263602AD198600B0
:1044F000AC51401C9842F4D900BF70BD00BF0121EF
:104500008140054A916000BF704700BF0121814092
:10451000014AD16000BF70470005005070B50546E4
:104520000C461646072C19D82846082108430121B5
:10453000A140090208436D49486001200860002E2F
:104540000CD06B4948600121072000F097F8072044
:1045500001218140674A116000BF00BF70BD1A2071
:10456000624948600120086070470121624A116079
:1045700000BF624909680029FBD000215F4A116031
:104580005A4988687047F8B5FFF7EFFF074603F010
:1045900095FD06465A4903F0C5FD0546594903F005
:1045A000C1FD04468921C90503F094FCF8BD00B59E
:1045B000FFF7DBFFE12109014843800A00BD10B588
:1045C000002202210846FFF7A9FF00220321022052
:1045D000FFF7A4FF002204210220FFF79FFF10BD78
:1045E00010B5002202210846FFF798FFFFF7BDFF34
:1045F00080B210BDFEB5002203210220FFF78EFF1E
:10460000FFF7B3FF80B2009003F058FD07463C4926
:1046100003F088FD06463B4903F084FD05463A4910
:1046200003F080FD04468921C90503F053FC019085
:1046300003F000FD80B2FEBDFEB500220421022081
:10464000FFF76CFFFFF791FF80B2009003F036FD9B
:1046500007462B4903F066FD06462A4903F062FD32
:104660000546294903F05EFD04468921C90503F08A
:1046700031FC019003F0DEFC80B2FEBD10B50028D5
:1046800019DA224A03071B0F083B9B089B00D258EC
:104690008307DC0EFF23A3409A438B071B0E84077E
:1046A000E40EA3401A43194B0407240F083CA40846
:1046B000A4001A5118E00F4A03231B02D2188308E2
:1046C0009B00D2588307DC0EFF23A3409A438B073D
:1046D0001B0E8407E40EA3401A43064B0324240256
:1046E0001B198408A4001A5110BD00000075004079
:1046F0000073004000E100E00070004000710040E5
:10470000000040409A99993F00007A441CED00E077
:1047100030B513048C0023430524240707252D02FC
:1047200064198500635130BD10B503210F2000F0DE
:1047300072F8032211460F20FFF7EAFF032102203F
:1047400000F069F810BD70B50F2038490969C14003
:10475000C907C90F00295AD135480068401C34499F
:104760000860084600687D210901884252D3102064
:10477000FFF7C4FE032211460F20FFF7C9FF2D48A3
:10478000006801F0C0FC2C48FFF7FEFC1020FFF78A
:10479000BCFE0020FFF7B9FE1C20FFF7B6FE00218B
:1047A000012001F02DFD0021022001F029FD002152
:1047B000032001F025FD0021042001F021FD00214E
:1047C000052001F01DFD0021062001F019FD00214A
:1047D000072001F015FD0021082001F011FD09203E
:1047E00001218140154A116000BF1348FFF7CCFC3E
:1047F00031DF044600BF2546002D06D000BF10A2C1
:104800003F21284600F00CFA00BF00BF02E0002064
:104810000749086070BD10B58A0005231B070724EF
:1048200024021B1984001A5110BD0000000500501D
:10483000082000200420002040420F0080E100E01A
:104840004B45592E6300000001202A498861002051
:104850002949486001208107886000BF26484068D8
:104860000028FBD000202449486070470B2001211C
:104870008140224A116000BF2148224988601820E7
:1048800020494031086001201F4948601E494039D5
:10489000486000041C4948601B4940394860704723
:1048A000102001210522120707231B02D2188300C2
:1048B000D15000BF0021002906D100BF0122824053
:1048C000124BDA6000BF06E000BF012282400F4BAE
:1048D0009A6000BF00BF00BF7047704710B5FFF778
:1048E000DFFFFFF7B1FFFFF7C1FF012008490860B4
:1048F00010BD0000000500400001004000E100E0A4
:10490000FF0F000000B5004040B30040000500501C
:1049100000B00040F7B506460F46002E01D16848AA
:1049200000E068480446002E1FD10E2000F0AFF8CA
:104930000D2000F0ACF800210C2000F0B1F80A20A6
:1049400000F0A5F80E2005210902611888600D20ED
:10495000052109026118C8600C20052109026118AF
:1049600008610A2000F0A6F81EE00E2000F08FF883
:104970000D2000F08CF800210C2000F091F80A20A6
:1049800000F085F80E2005210902611888600D20CD
:10499000052109026118C8600C200521090261186F
:1049A00008610A2000F086F80120000705210902AD
:1049B00061184862002F06D0012F06D0022F06D0C2
:1049C000032F08D105E0002507E0022505E00425B6
:1049D00003E0062501E0002500BF00BF0298002883
:1049E00006D001202843052109026118486503E02B
:1049F00005200002201845650021FF2009300151E3
:104A0000012005210902611808602046FEBDFFB59E
:104A100081B000270026019D2948019D854201D1D2
:104A20000A2400E00A2400BF0120A0402649C860F3
:104A300000BF27E00398805D052109026918C8615D
:104A400000E07F1CFF2009304059002803D10320DB
:104A500000038742F5D303200003874205D1204697
:104A600000F028F8002005B0F0BD0021FF2009303B
:104A700041510520000228188069C1B2049881556F
:104A8000701C86B202988642D4DB0120EBE701213C
:104A90000522120707231B02D2188300D15070474A
:104AA00010B58A0005231B07072424021B19840064
:104AB0001A5110BD01218140034A916070470000E6
:104AC00000300040004000400005005010B5404854
:104AD0000088401C3E49088008460088322804DDD2
:104AE0000020088001203B4908703B480078401CAA
:104AF0003949087039480088401C384908803848CE
:104B00000068401C36490860344800887D2109014E
:104B100088421EDB32480068884214DB3148007846
:104B200000280AD100BFBFF34F8F2F482F49C8601C
:104B3000BFF34F8F00BF00BFFEE700202849086089
:104B40002649088002E0002025490860002023490A
:104B5000088024480078632816D125480068401C46
:104B600023490860084600681E2803DC1020FFF770
:104B7000C5FC02E01020FFF7C8FC1D4800683C2877
:104B800002DB00201A49086000201A49086010BDA5
:104B90000020194948600861886001201749C860F1
:104BA0001449C03108607D20C001134940310860BC
:104BB0000120000412494860012010490860704734
:104BC0000920012181400F4A116000BF62B6704781
:104BD000162000200C2000200D2000201420002092
:104BE0007C200020A42000200400FA0500ED00E055
:104BF00010200020409100400095004000900040AF
:104C00000093004000E100E030B513048C00234322
:104C10000524240707252D0264198500635130BD42
:104C200000BFBFF34F8FFE48FE49C860BFF34F8FF0
:104C300000BF00BFFEE703460C4622461946FA486D
:104C4000FFF7EEFF102001210522120707231B02A8
:104C5000D2188300D15000BF704738B500BF002084
:104C6000F24B05220221009002F096FE044600BF9E
:104C70002346002B05D000BFEDA259211846FFF7AF
:104C8000CFFF00BF00BF38BD3EB500BF684600780B
:104C900001090901491C009168460078F021884308
:104CA0001030009000BF0422E3A168467CDF044678
:104CB00000BF2346002B05D000BFDDA26D211846A2
:104CC000FFF7AEFF00BF0020019002901021684660
:104CD00081803C21C18000210181FF2191314181EE
:104CE00001A87ADF044600BF2346002B05D000BF91
:104CF000CFA277211846FFF793FF00BF3EBD10B546
:104D0000A0B005210191CE4800680090CD480178FF
:104D1000684681703C2111A803F029F80220119007
:104D2000002110A841720121818101A914913C2127
:104D300002A803F01CF801216846818469460A91A3
:104D400002A911A801F087FF044600BF2346002BEB
:104D500005D000BFB6A294211846FFF761FF00BF3F
:104D600020B010BD70B504460D46164632462946A1
:104D7000204600F0E1FD70BD38B500200090B2483B
:104D800000906946AF4801F03EFC044600BF234650
:104D9000002B05D000BFA6A2B8211846FFF740FFA0
:104DA00000BF38BD1E20A949088008468078400809
:104DB0004000401C88700846807802218843A3493F
:104DC0008870084680781C2188430C309F49887081
:104DD00008468078202188439C4988700720C87045
:104DE00010200871704770B50546286800280FD15B
:104DF0003B219748008876DF044600BF2346002BFE
:104E000005D000BF8AA2DC211846FFF709FF00BFCA
:104E100070BD034600BF86A2E7211846FFF700FFDA
:104E200010B588B01C2101A802F0A1FF002001905C
:104E3000052040040290801003900321684601740D
:104E4000002141820175834806908348079001A89C
:104E500001F09DFF044600BF2346002B05D000BF94
:104E600073A2FE211846FFF7DBFE00BF08B010BD9D
:104E700010B586B0142101A802F079FF0021684620
:104E80000171002002906846017340218182B421A3
:104E9000C18201A873DF044600BF2346002B06D061
:104EA00000BF63A2FF2114311846FFF7B9FE00BF0F
:104EB000102001218140694A916000BF06B010BDF9
:104EC000F8B50546288814284BD006DC10280BD0EE
:104ED000112813D013286FD117E017283BD01928B9
:104EE0006CD05228F7D123E01020012181405B4A89
:104EF000D16000BFA88856490880D7E00020C04391
:104F000053490880FFF7B4FFD0E0504A00215048D1
:104F100000887FDF044600BF2346002B06D000BF79
:104F200043A2FF2139311846FFF77AFE00BFBDE0EA
:104F30000022114646480088A9DF044600BF2346E8
:104F4000002B06D000BF3AA2FF213E311846FFF7E2
:104F500067FE00BFAAE03222A91D414802F0A8FE68
:104F6000A4E03F4EB61D3188E889814211D100226C
:104F700031463748008881DF044600BF2346002BB6
:104F800006D000BF2AA2FF214A311846FFF748FE8B
:104F900011E0002211462E48008881DF044600BF40
:104FA0002346002B06D000BF21A2FF215031184616
:104FB000FFF736FE00BF79E077E0FFE71020FFF74C
:104FC0009DFA032211460F20FFF71EFE25480068B8
:104FD00001F099F82448FFF7E7F81020FFF795FA59
:104FE0000020FFF792FA1C20FFF78FFA0021012022
:104FF00001F006F90021022001F002F9002103204E
:1050000001F0FEF80021042001F0FAF8002105204B
:1050100001F0F6F80021062001F0F2F8002125E069
:105020000400FA0500ED00E0EFBEADDE0421002033
:10503000424C452E630000004D4C454400000000EA
:10504000D4810100A0230020654D0100182000201C
:105050001E200020E74D0100134E01000005005006
:105060001C2300200420002040420F00072001F0F4
:10507000C7F80021082001F0C3F809200121814070
:10508000314A116000BF3148FFF78EF831DF074623
:1050900000BF3B46002B06D000BF2D4AFF217331D5
:1050A0001846FFF7BDFD00BF00E000BF00BFF8BD20
:1050B00010B50446204601F03EFF2146254801F088
:1050C0007FFA2046FFF7FCFE10BD70B500BF00233D
:1050D00050222149184601F0E8FF054600BF2B4643
:1050E000002B06D000BF1A4AFF2197311846FFF760
:1050F00097FD00BF00BF194802F00DF8044600BF3D
:105100002346002B06D000BF114AFF219C311846D0
:10511000FFF786FD00BF70BD10B5032211460F20BA
:10512000FFF772FD10BD10B53DDF044600BF2346FA
:10513000002B06D000BF064AFF21AE311846FFF70C
:105140006FFD00BF10BD000080E100E040420F0095
:1051500030500100A023002050230020B150010056
:1051600010B50446012C08D11E20FFF7CEF9062009
:10517000FFF7CBF90720FFF7C8F9022C08D11E2052
:10518000FFF7BCF90620FFF7C0F90720FFF7BDF9CC
:10519000032C08D11E20FFF7B8F90620FFF7AEF95F
:1051A0000720FFF7B2F9042C08D11E20FFF7A6F95B
:1051B0000620FFF7A3F90720FFF7A7F9052C08D170
:1051C0001E20FFF7A2F90620FFF79FF90720FFF73F
:1051D00095F9062C08D11E20FFF790F90620FFF75D
:1051E00094F90720FFF78AF9072C08D11E20FFF752
:1051F0008CF90620FFF782F90720FFF77FF9082CCA
:1052000008D11E20FFF77AF90620FFF777F907206B
:10521000FFF774F910BD10B50446012C08D11D200C
:10522000FFF773F90420FFF770F90520FFF76DF918
:10523000022C08D11D20FFF761F90420FFF765F962
:105240000520FFF762F9032C08D11D20FFF75DF957
:105250000420FFF753F90520FFF757F9042C08D174
:105260001D20FFF74BF90420FFF748F90520FFF751
:105270004CF9052C08D11D20FFF747F90420FFF752
:1052800044F90520FFF73AF9062C08D11D20FFF755
:1052900035F90420FFF739F90520FFF72FF9072C1E
:1052A00008D11D20FFF731F90420FFF727F9052069
:1052B000FFF724F9082C08D11D20FFF71FF904205F
:1052C000FFF71CF90520FFF719F910BD10B50020F4
:1052D00000F0F0FA10BD10B51C2000F0EBFA10BD84
:1052E0001CB5044600F006FB601E4000FE4A115A41
:1052F000204600F085FF2046FFF732FFFFF7EBFF67
:10530000FA48FEF761FFFA49FA48006800F0CBFE60
:10531000F9A103C901910090F5480088001269467F
:105320000871F3480078487100BF06226946F448C6
:1053300001F0A9F90028F8D100F0DCFA1CBD7CB519
:1053400005460C4600F0D6FA681E4000E64A105AA0
:10535000643081B2284600F053FFEA48FEF734FF7C
:10536000601E4000E04A105A643081B2204600F0CE
:1053700047FF2846FFF7F4FE2046FFF74CFFDB48C7
:10538000FEF722FFDA49DB48006800F0A4FEDAA14C
:1053900003C901910090D64800880012694608713F
:1053A000D3480078487100BF06226946D44801F00E
:1053B0006AF90028F8D100F09DFA7CBD1CB50446BE
:1053C00000F098FA2046FFF7CBFEFFF784FFC748AE
:1053D000FEF7FAFEC649C748006800F064FEC6A1A1
:1053E00003C901910090C248008800126946087103
:1053F000BF480078487100BF06226946C04801F0E6
:1054000042F90028F8D100F075FA1CBD7CB50546BC
:105410000C4600F06FFA2846FFF7A2FE2046FFF781
:10542000FAFEB248FEF7D0FEB149B248006800F07B
:1054300052FEB1A103C901910090AD48008800124D
:1054400069460871AA480078487100BF062269467B
:10545000AB4801F018F90028F8D100F04BFA7CBDF8
:105460007CB504460D4600F045FAAC4205DA20460C
:10547000FFF776FE2846FFF7CEFEAC4205DD284654
:10548000FFF76EFE2046FFF7C6FE601E4000964AFC
:10549000115A204600F0B4FE9448FEF795FE944958
:1054A0009448006800F017FE93A103C90191009091
:1054B0008F4800880012694608718D48007848714D
:1054C00000BF062269468E4801F0DDF80028F8D1B9
:1054D00000F010FA7CBD7CB504460D4600F00AFAD7
:1054E000601E4000804A105A401981B2204600F0E8
:1054F00087FE2046FFF734FEFFF7EDFE7B48FEF700
:1055000063FE7B497B48006800F0CDFD7AA103C9AA
:10551000019100907648008800126946087174482D
:105520000078487100BF06226946754801F0ABF863
:105530000028F8D100F0DEF97CBD7CB504460D46AC
:10554000164600F0D7F9AC4205DA2046FFF708FE10
:105550002846FFF760FEAC4205DD2846FFF700FE57
:105560002046FFF758FE601E40005F4A105A80191F
:1055700081B2204600F044FE5C48FEF725FE5C49FF
:105580005C48006800F0A7FD5BA103C90191009091
:1055900057480088001269460871554800784871DC
:1055A00000BF06226946564801F06DF80028F8D180
:1055B00000F0A0F97CBD002053490860704770B529
:1055C0005248007852490968884200D170BD0020D5
:1055D0004E490870FFF7EFFFFFF7B5F84D48006838
:1055E000002802D002204C4908604C48006800287E
:1055F00078D14B480068002809DCFEF7FBFF4949D9
:1056000088426FDCFEF7F6FF46498842F9DC00204D
:10561000414908603F49086041480068C82803DCE8
:105620001020FEF76BFF02E01020FEF76EFF3C48F3
:105630000068401C3A4908603B480068401C3A49F1
:10564000086037480068FF219131884202DB012061
:1056500033490860344800687D210901884242DBF3
:105660001020FEF74BFF0F2003210A4613048D0084
:105670002B4305252D0707263602AD198600AB51B1
:1056800000BF1C48006800F03EFD1848FEF79CFD76
:105690001020FEF73AFF0020FEF737FF1C20FEF730
:1056A00034FF0021012000F0ABFD0021022000F0BA
:1056B000A7FD0021032000F0A3FD0021042000F03D
:1056C0009FFD0021052000F09BFD0021062000F039
:1056D00097FD0021072000F093FD0021082000F035
:1056E0008FFD23E03BE03DE08820002040420F009A
:1056F000502000200420002001960000000000003F
:10570000A0230020A08601007C2000200D20002086
:105710009820002034200020282000203020002065
:1057200080200020C10600008420002009200121E3
:105730008140634A116000BF6248FEF745FD31DFDA
:10574000044600BF2546002D07D000BF5EA2FF2102
:105750001B312846FFF764FA00BF00BF02E00220B9
:105760005C4908605B480068022837D15A480068E5
:10577000002833D00020574908606320574908703B
:1057800001241CE07D25ED0012E0A9B2E0B200F09A
:1057900037FD5348FEF718FDFEF74EFFE121890063
:1057A000884204DB601E40004E4A155203E06D1D26
:1057B0004D488542E9DD00BF00F09CF8641C082CD0
:1057C000E0DD002045490870FFF752FBFFF7ABFC16
:1057D00000204149086001204449086043480068AE
:1057E000002865D03D480078012818D1012403E045
:1057F000E0B2FFF775FD641C082CF9DD012409E017
:10580000651C04E0E9B2E0B2FFF799FD6D1C082DBC
:10581000F8DD641C082CF3DD0020304908702F48A7
:105820000078022818D1012403E0E0B2FFF7C6FD9A
:10583000641C082CF9DD012409E0651C04E0E9B2D0
:10584000E0B2FFF7E3FD6D1C082DF8DD641C082CA9
:10585000F3DD00202149087020480078032827D173
:105860006325ED431FE0012404E0E0B22946FFF781
:1058700032FE641C082CF8DD01240FE0661C0AE0EF
:10588000F1B2E0B22A46FFF758FEE1B2F0B22A4682
:10589000FFF753FE761C082EF2DD641C082CEDDDAC
:1058A00028460A3045B2642DDDDD00200B49087022
:1058B00000BF8BE6012181400D4AD1607047000096
:1058C00080E100E040420F004D61696E576F726BDE
:1058D0002E6300002820002034200020A420002077
:1058E0001027000088200020D20F00003020002068
:1058F0000005005010B50021012000F081FC0021BE
:10590000022000F07DFC0021032000F079FC002142
:10591000042000F075FC0021052000F071FC00213E
:10592000062000F06DFC0021072000F069FC00213A
:10593000082000F065FC10BDF0B593B007460C469A
:10594000207801287DD160789928FBD1FFF7D2FF1C
:10595000A078012807D1FE49062000F051FCFD493E
:10596000012000F04DFCA078022804D1F9496431EF
:10597000032000F045FCA078032802D1F64900F08E
:105980003FFCA078042803D1F449032000F038FC40
:10599000A078052804D17D214901032000F030FCC6
:1059A000FEF74AFE0546EEA103C9129111907D2132
:1059B000C900284602F0E7F9C1B210A801726421BB
:1059C000284602F0E0F906460A2102F0DCF910A8A8
:1059D00041720A21284602F0D6F906460A2102F051
:1059E000D2F910A881720A21284602F0CCF910A839
:1059F000C17200BF082211A9DB4800F044FE002854
:105A0000F8D1D7A103C910910F90D84908887D21FA
:105A1000C90002F0B8F9C1B210A80170D3490888D2
:105A2000642102F0B0F906460A2102F0ACF910A890
:105A30004170CE4908880A2102F0A5F906460A21DC
:105A400000E071E102F09FF910A88170C749088851
:105A50000A2102F098F910A8C17000BF08220FA90E
:105A6000C14800F010FE0028F8D1BDA103C90E9175
:105A70000D90BE4948887D21C90002F084F9C1B269
:105A800008A80176B9494888642102F07CF90646E5
:105A90000A2102F078F908A84176B44948880A2119
:105AA00002F071F906460A2102F06DF908A8817624
:105AB000AE4948880A2102F066F908A8C17600BFFD
:105AC00008220DA9A84800F0DEFD0028F8D1A4A105
:105AD00003C90C910B90A54988887D21C90002F06B
:105AE00052F9C1B208A80174A0498888642102F063
:105AF0004AF906460A2102F046F908A841749B4972
:105B000088880A2102F03FF906460A2102F03BF993
:105B100008A88174954988880A2102F034F908A8F8
:105B2000C17400BF08220BA98F4800F0ACFD00280B
:105B3000F8D18BA103C90A9109908C49C8887D21AD
:105B4000C90002F020F9C1B208A801728749C888CB
:105B5000642102F018F906460A2102F014F908A897
:105B600041728249C8880A2102F00DF906460A21CD
:105B700002F009F908A881727C49C8880A2102F05C
:105B800002F908A8C17200BF082209A9764800F0EE
:105B90007AFD0028F8D172A103C9089107907349D2
:105BA00008897D21C90002F0EEF8C1B208A8017091
:105BB0006E490889642102F0E6F806460A2102F0DF
:105BC000E2F808A84170694908890A2102F0DBF867
:105BD00006460A2102F0D7F808A8817063490889AF
:105BE0000A2102F0D0F808A8C17000BF082207A956
:105BF0005D4800F048FD0028F8D159A103C906917D
:105C000005905A4948897D21C90002F0BCF8C1B20B
:105C10006846017655494889642102F0B4F8064681
:105C20000A2102F0B0F868464176504948890A21B5
:105C300002F0A9F806460A2102F0A5F86846817626
:105C40004A4948890A2102F09EF86846C17600BF99
:105C5000082205A9444800F016FD0028F8D140A10B
:105C600003C904910390414988897D21C90002F04C
:105C70008AF8C1B2684601743C498889642102F0FF
:105C800082F806460A2102F07EF8684641743749D8
:105C900088890A2102F077F806460A2102F073F893
:105CA00068468174314988890A2102F06CF8684697
:105CB000C17400BF082203A92B4800F0E4FC0028AF
:105CC000F8D127A103C9029101902849C8897D21F3
:105CD000C90002F058F8C1B2684601722349C88968
:105CE000642102F050F806460A2102F04CF868469A
:105CF00041721E49C8890A2102F045F806460A2168
:105D000002F041F8684681721849C8890A2102F0F8
:105D10003AF86846C17200BF082201A9124800F093
:105D2000B2FC0028F8D100BF2078012807D16078A4
:105D3000972804D1FFF7DEFD01200D490870207877
:105D400001281AD16078572817D1FFF7D3FD11E049
:105D5000DC050000B80B0000480D0000740E0000C8
:105D60000198000000000000A023002088200020EF
:105D7000A420002002204A4908702078012807D179
:105D80006078582804D1FFF7B5FD03204449087016
:105D9000207801284AD16078872847D11E20FEF755
:105DA000B4FB0620FEF7B1FB0720FEF7AEFB1D207B
:105DB000FEF7A4FB0420FEF7A8FB0520FEF7A5FBD9
:105DC00038A00068129000BF042212A9364800F0E3
:105DD0005AFC0028F8D1354A07CA0FAB07C30FA9F0
:105DE0003348006800F077F932A103C90E910D9095
:105DF0006846808F011208A801766846808FC1B27C
:105E000008A8417600BF06220DA9274800F03BFCF8
:105E10000028F8D129A000680C9000BF04220CA92A
:105E2000214800F030FC0028F8D100BF207801287C
:105E30001BD16078332818D121A103C91291119088
:105E400000BF062211A9184800F01DFC0028F8D157
:105E50001DA103C910910F9000BF06220FA912487F
:105E600000F011FC0028F8D100BF2078012814D1DF
:105E70006078462811D116A103C912911190217999
:105E800010A801726179417200BF062211A906486B
:105E900000F0F9FB0028F8D100BF13B0F0BD0000FE
:105EA000A420002001860001A0230020D881010049
:105EB000042000200186000000000000018600028E
:105EC00001340000960000000034000000210000B2
:105ED00001470000000000007CB505460C46019417
:105EE000002000906B4601AA01212846FEF78FFD95
:105EF0007CBD7CB506460C46154600200190200767
:105F0000000F4030009001AB6A4601213046FEF799
:105F10007EFD0021009101AB6A4601213046FEF76B
:105F200076FD009501AB6A4601213046FEF76FFD14
:105F30007CBD3EB505460C4600200290019020072E
:105F4000000F2030009002AB6A4601212846FEF780
:105F50005EFD0021009102AB6A4601212846FEF752
:105F600056FDFF21009101AB6A4601212846FEF74C
:105F70004EFD684600793EBD7FB505460A2000F01B
:105F8000E8F80120FEF730F97BA0006803907BA0C1
:105F9000006802900121092000F0E0F80120FEF7DE
:105FA00023F90021092000F0D9F800BF0B20744923
:105FB0000969C140C907C90F0029F7D101AB03AA7C
:105FC00001212846FEF723FD6B4602AA032128463D
:105FD000FEF71DFD69464C78097809020C4301ABB8
:105FE00003AA01212846FEF712FD0A2000F0ACF8B2
:105FF000204604B070BD10B504460A2000F091F8A8
:10600000092000F08EF8082000F08BF801210B2009
:1060100000F090F8092000F084F801210B2000F036
:1060200089F8082000F07DF80021092000F096F89A
:106030000A2000F089F80021082000F08FF8642081
:10604000FEF7D2F80121082000F088F87D20C0007A
:10605000FEF7CAF81A2200212046FFF74AFF38222D
:1060600002212046FFF745FF002201212046FFF7CD
:1060700040FF23220B212046FFF73BFF07220A2186
:106080002046FFF736FF072203212046FFF731FFA6
:10609000012200212046FFF72CFFFF220B21204682
:1060A000FFF727FF10BD38B505460C460121092032
:1060B00000F054F8132200212846FFF71AFF0021B0
:1060C000092000F04BF82846FFF756FF009069467C
:1060D0000888208038BD38B505460C4601210920C6
:1060E00000F03CF8012200212846FFF702FF0021C2
:1060F000092000F033F82846FFF73EFF009069467C
:106100000888208038BD10B5044602212046FFF7DC
:10611000E3FE10BD10B5044601212046FFF7DCFE6A
:1061200010BD01210522120707231B02D21883008C
:10613000D150704710B58A0005231B07072424029D
:106140001B1984001A5110BD012181400C4A916035
:106150007047012181400A4AD160704770B50546F9
:106160000C46002C03D12846FFF7F3FF02E0284637
:10617000FFF7EAFF70BD000012000000FFFFFF0004
:106180000005005010B5122000F0D1F8132000F0E7
:10619000CEF8142000F0CBF8172000F0C8F8182033
:1061A00000F0C5F8192000F0C2F81A2000F0BFF87E
:1061B000112000F0BCF8162000F0B9F8152000F00E
:1061C000B6F8122000F0BCF8132000F0B9F8142043
:1061D00000F0B6F8172000F0B3F8182000F0B0F87F
:1061E000192000F0ADF81A2000F0AAF8112000F0F4
:1061F000A7F8162000F0A4F8152000F0A1F810BDB3
:1062000070B504460E465348864200DB064616200B
:1062100000F09BF8122000F093F8132000F090F8A3
:10622000142000F08DF8172000F08AF8182000F0F4
:1062300087F8192000F084F81A2000F081F8112066
:1062400000F07EF8012C03D1122000F07EF82AE045
:10625000022C03D1132000F078F824E0032C03D1A2
:10626000142000F072F81EE0042C03D1172000F077
:106270006CF818E0052C03D1182000F066F812E045
:10628000062C03D1192000F060F80CE0072C03D194
:106290001A2000F05AF806E0082C03D1112000F073
:1062A00054F800E070BD0520FDF7AEFF002520E0AA
:1062B000162000F045F80520FDF7A6FF0120C003D9
:1062C000284130400F21491B0841002803D01520E8
:1062D00000F036F802E0152000F037F80520FDF751
:1062E00093FF162000F031F80520FDF78DFF681CA4
:1062F000C5B2102DDCDB122000F022F8132000F0D4
:106300001FF8142000F01CF8172000F019F81820CE
:1063100000F016F8192000F013F81A2000F010F819
:10632000112000F00DF800BF00BF00BFBAE7012147
:106330000522120707231B02D2188300D150704791
:1063400001218140044A9160704701218140024A45
:10635000D1607047FE0F0000000500508A888282DD
:1063600070470022D2438282704770B504460E46C1
:10637000B51D2988208A814213D1288B022810D18B
:1063800000BF00BFA97EEA7E120211430846C10782
:10639000C90F002902D00120A0750FE00020A075D0
:1063A0000CE02888A188884208D1A069002805D07F
:1063B0002A8B29461A312046A369984770BD30B50B
:1063C0008FB004460D460020079000BF6846007F4E
:1063D00001090901491C68460177007FF0218843C3
:1063E00010306946087700BF00BF6846407F01094A
:1063F0000901491C68464177407FF02188431030ED
:106400006946487700BF6846807F06218843811C23
:10641000684681771C2108A801F0A9FC08A800782B
:1064200010218843411808A80170002009900B90A2
:106430000C9007A80D9000200E902178684681717D
:10644000032181800020009000BF68460078010988
:106450000901491C684601700078F021884310301A
:106460006946087000BF00BF68464078010909010D
:10647000491C684641704078F021884310306946D5
:10648000487000BF6846807806218843811C6846B2
:106490008170807808218843014668468170807841
:1064A0001021884301466846817080784108490080
:1064B000491C68468170142102A801F058FC01A80B
:1064C000029068460390012101820021418214213B
:1064D0008182608823460C3302AA08A9A2DF0FB08C
:1064E00030BD30B58FB004460D461C2108A801F020
:1064F0003EFC08A8007808218843411808A80170CC
:10650000007804218843011D08A80170002009902B
:106510000B900C900D900E902178684681720221AC
:1065200001810020019000BF68460079010909013E
:10653000491C684601710079F02188431030694692
:10654000087100BF00BF6846407901090901491C74
:10655000684641714079F02188431030694648719E
:1065600000BF6846807906218843811C6846817196
:10657000807908218843014668468171807910211D
:106580008843014668468171807941084900491C69
:1065900068468171142103A801F0E9FB02A8039069
:1065A00001A804900121684681820021C182142142
:1065B00001836088231D03AA08A9A2DF0FB030BDA4
:1065C00070B505460C46002D01D0002C00D170BDE1
:1065D0002088102804D0112807D050280FD109E0B6
:1065E00021462846FFF7BAFE0AE021462846FFF773
:1065F000B8FE05E021462846FFF7B7FE00E000BFE1
:1066000000BF00BFE3E770B586B004460E46334BCB
:106610000FCB01AD0FC5002C01D0002E02D10E20F2
:1066200006B070BD0020C043A0823068A061002089
:10663000A075214601A862DF0546002D01D028463D
:10664000EEE721786846817501218182A21C05A9A7
:106650000120A0DF0546002D01D02846E0E73146A5
:106660002046FFF7ACFE0546002D01D02846D7E7AF
:1066700031462046FFF735FF0546002D01D028465C
:10668000CEE70020CCE737B584B004460D46002C99
:1066900002D10E2007B030BDA08A1149884202D035
:1066A000A07D002801D10820F4E76846008B14285B
:1066B00001DD0720EEE7002000900190029003909A
:1066C000A18968460180039506A8029001216846C9
:1066D0008170A08A6946A6DFDCE70000E481010042
:1066E000FFFF0000F7B584B004460F460698067811
:1066F000B01C1F2803DC2079801C1F2802DD0C2021
:1067000007B0F0BD1F20801B801E85B20295B11C12
:10671000781802A97DDF03900398002801D0039820
:10672000EEE72068022808D168460089A84204DC08
:1067300009200190684605890BE008200190207926
:10674000002804D02079A84201DC257901E06846C0
:106750000589681CC2B23046711CCEB23A5430462C
:10676000721CD6B20199395406980178A81C0818F1
:10677000C1B2069801700020C2E7F8B505460C4684
:106780002078001D1F2801DD0C20F8BD684679DF48
:106790000646002E01D03046F7E703212278501C30
:1067A0002070A95419212278501C2070A9542078F7
:1067B00041196846008800F08BFA21784018207053
:1067C0000020E2E7F8B505460F4616461C46686805
:1067D000002801D10720F8BD2078801C29884018A6
:1067E0001F2801DD0C20F6E72878401CC1B2227872
:1067F000501C2070B1542178481C207077542A888E
:1068000023789819696801F053FA2078297840189C
:1068100020700020DFE730B503461078C01C1F2829
:1068200001DD0C2030BD02241578681C10704C5519
:106830000A241578681C10704C551578681C107067
:106840004B550020EEE7FFB587B006461D46109C6D
:106850000020069020780590002747E0B900706876
:1068600041180A886846028149884181002203A9AB
:1068700002A864DF04900498002802D004980BB0AA
:10688000F0BD6846017B099881422ED10698002808
:1068900001D0002000E00220019020786946097BA9
:1068A0004118019808181F2801DD0C20E7E7069819
:1068B000002809D12078401C20702278511C0898AB
:1068C0002170A854012006902078421903A902A83B
:1068D00064DF04900498002801D00498CFE7207862
:1068E0006946097B4018207000BF7F1C3088B84281
:1068F000B4DC0698002806D021780598401C081AB8
:10690000C1B2059829540020B9E7FFB581B0074608
:1069100015460A9E009602223846049B0299FFF70C
:1069200092FF0446002C02D0204605B0F0BD009630
:10693000102229463846049BFFF785FF0446002CA9
:1069400001D02046F1E70020EFE70146088806283D
:1069500008DB08881922D201904205DD0888E14A47
:10696000904201D0072070474888062808DB4888F5
:106970001922D201904205DD4888DA4A904201D0BE
:106980000720F0E70888D74A904208D0488890420C
:1069900005D008884A88904201DD0720E3E70020FF
:1069A000E1E7F8B506460D4614462078801D1F28FD
:1069B00001D90C20F8BD3046FFF7C7FF0746002F6E
:1069C00001D03846F6E705212278501C2070A954E2
:1069D00012212278501C2070A95422785119308835
:1069E00000F076F9217840182070227851197088CB
:1069F00000F06EF92178401820700020DAE7F8B531
:106A000005460E4614462879801CC7B22078801CA3
:106A1000C0191F2801DD0C20F8BD781CC1B22278F6
:106A2000501C2070B154FF212278501C2070B154AA
:106A300022789119288800F04BF9217840182070AD
:106A4000A88800280EDDA868002801D10720E3E708
:106A5000AA8823789819A96801F02AF92078297959
:106A6000401820700020D7E7FEB507460E461446B2
:106A7000786B002801D10720FEBD0020019032E094
:106A8000796B0C22019850430D182879801CC0B2F4
:106A900000900098401CC1B22278501C2070B15464
:106AA00016212278501C2070B15422789119288820
:106AB00000F00EF9217840182070A88800280EDD1B
:106AC000A868002801D10720D6E7AA88237898195A
:106AD000A96801F0EDF82078297940182070019814
:106AE000401CC0B201903820C15D01988142C7DCD2
:106AF0000020C1E7F8B504460F46164600250020E1
:106B000030702068002809D0324639462046FFF709
:106B1000E9FD0546002D01D02846F8BD6079002822
:106B200008D031463846FFF728FE0546002D01D033
:106B30002846F2E7208900280BDD33463A4601213A
:106B400020460830FFF73EFE0546002D01D02846BE
:106B5000E3E7206900280BD000202169085632465F
:106B60003946FFF758FE0546002D01D02846D4E7E8
:106B7000A08A00280CDD3B46062202212046143064
:106B80000096FFF7C2FE0546002D01D02846C4E757
:106B9000A08B00280CDD3B460722032120461C3039
:106BA0000096FFF7B2FE0546002D01D02846B4E757
:106BB000A08C00280CDD3B461522142120462430F1
:106BC0000096FFF7A2FE0546002D01D02846A4E757
:106BD000E06A002809D032463946E06AFFF7E1FE54
:106BE0000546002D01D0284697E7206B002809D0E4
:106BF00032463946206BFFF702FF0546002D01D0D3
:106C000028468AE73820005D002809DD32463946EB
:106C10002046FFF729FF0546002D01D028467CE7D6
:106C200028467AE701460889002808D0C868002865
:106C300005D0C868007804221040002801D1072040
:106C400070470020FCE701460889002801DD072085
:106C500070470020FCE7F3B593B00D460021129178
:106C600011911398002814D01398FFF7DBFF044606
:106C7000002C02D0204615B0F0BD12AA09A9139825
:106C8000FFF738FF0446002C01D02046F3E709AE99
:106C900000E00026002D13D02846FFF7D4FF04465D
:106CA000002C01D02046E6E711AA01A92846FFF7EB
:106CB00021FF0446002C01D02046DCE701AF00E0B4
:106CC000002710A803793A46017A304672DFD2E7EE
:106CD00002460A70FF200002104000124870022095
:106CE00070470000FFFF000001464888B74A12883D
:106CF000904206DB4888B54A5288904201DC012068
:106D000070470020FCE738B50546B1480088B14916
:106D100088423BD0B0480078401CAF490870AF486B
:106D2000007B097888420FDBA849A948008875DFF5
:106D30000446002C07D0A9488069002803D0A74842
:106D400081692046884721E00020A3490870A348B4
:106D5000007C00280FD03B219D48008876DF044648
:106D6000002C07D09D488069002803D09B4881698A
:106D70002046884700BF99484069002806D0002077
:106D80000090964841696846884700BF38BD70B595
:106D900005461C2229469148FDF756FA00209049E5
:106DA0000870286800280BD008228848296800F05D
:106DB0007FFF86487ADF0446002C08D0204670BD4D
:106DC00082487BDF0446002C01D02046F7E70020F4
:106DD000C0437F49088000207F490870814A002114
:106DE000814800F054FEEAE710B57F48006800F0E3
:106DF000C6FE10BD38B57D48FFF776FF002829D1C3
:106E00007748007800280AD074484069002820D0CC
:106E100000200090714841696846884719E06E4833
:106E20000078002802D16D48456801E06B4885680C
:106E3000002229466C48006800F070FE0446002CD1
:106E400007D066488069002803D0644881692046DD
:106E500088470AE061484069002806D00120009078
:106E60005E4841696846884700BF00205C49087059
:106E700038BD10B50446A08855490880082221462F
:106E80000E315A4800F014FF00205349087053484F
:106E9000C089002801D1FFF7ADFF10BD70B50546D0
:106EA0000020C0434A49088000204B4908704E48E2
:106EB000006800F064FE0446002C07D04748806953
:106EC000002803D0454881692046884770BD70B5C9
:106ED0000546AC1D20884149C989884220D1208BB4
:106EE00002281DD100BF00BFA17EE27E1202114325
:106EF0000846C107C90F002902D0FFF77BFF0FE04A
:106F00003948006800F03BFE0646002E07D03348A3
:106F10008069002803D0314881693046884700BF26
:106F200070BD10B504460822A11D304800F0C0FE17
:106F3000FFF760FF10BD10B504462088102806D06A
:106F4000112808D012280ED0502810D107E0204672
:106F5000FFF78FFF0CE02046FFF7A0FF08E0204678
:106F6000FFF7B5FF04E02046FFF7DBFF00E000BFBE
:106F700000BF10BD38B5044608222146134800F072
:106F800097FE12487ADF0546002D1CD11748FFF7FF
:106F9000ABFE00280BD10120114908700B490C48A9
:106FA000008875DF054601200B4908700BE00B488F
:106FB0004069002806D001200090084841696846D1
:106FC000884700BF0025284638BD0000AC200020BF
:106FD000B6200020FFFF0000B4200020BC230020CA
:106FE000C4200020076D0100C0200020B820002030
:106FF00070B506460C46154629462046FDF71BFE91
:1070000070BDF8B55A480078002800D1F8BD59483D
:107010000068002801D1012000E000200546564804
:107020000068002801D1012000E00020064600BFD2
:10703000002D14D168464EDF0446052C01D10125F0
:107040000CE0002C06D000BF4CA269212046FDF7C1
:10705000E7FD03E0474900980968884700BF002E14
:107060001AD154480088009069465348006860DF90
:107070000446052C01D101260DE0002C06D000BFEE
:107080003EA280212046FDF7CBFD04E04A4800687F
:1070900039490968884700BF002D02D0002E00D072
:1070A00000E0C5E700BF00BFB0E7FFB581B00C4608
:1070B00016461F46002C02D1072005B0F0BD204621
:1070C0008107890F002901D1012100E00021002959
:1070D00001D10720F1E73848046036480680374878
:1070E00007603749019810DF0546002D01D028467A
:1070F000E3E701201E490870162023DFDDE710B505
:1071000011DF0446002C01D0012000E000201849C6
:107110000870204610BD0146002901D10E2070479D
:10712000154801600020FAE70146002901D10E2030
:107130007047104801600020FAE770B51F480068EA
:10714000002811D01D4800688047044600BF25462E
:10715000002D07D000BF09A2FF2133312846FDF7DB
:107160005FFD00BF00BF01E0FFF74BFF70BD0000F7
:10717000D2200020D8200020D42000202E2E5C2EEB
:107180002E5C2E2E5C2E2E5C2E2E5C536F75726341
:10719000655C73645F636F6D6D6F6E5C736F667457
:1071A0006465766963655F68616E646C65722E63A1
:1071B00000000000D0200020CC200020C8200020AB
:1071C000F16F010010B5002819DAFA4A03071B0F06
:1071D000083B9B089B00D2588307DC0EFF23A3408B
:1071E0009A438B071B0E8407E40EA3401A43F14B0E
:1071F0000407240F083CA408A4001A5118E0EE4A22
:1072000003231B02D21883089B00D2588307DC0E8D
:10721000FF23A3409A438B071B0E8407E40EA34071
:107220001A43E54B032424021B198408A4001A51B5
:1072300010BD10B50446E148846003211120FFF71A
:10724000C1FF10BD10B501200004DD494860DC49D4
:1072500040394860112000F0DDFC112000F0CCFC2A
:107260000120D84908602F20FCF7DEFF10BD10B5C3
:10727000112001218140D04A8032116000BF0120DD
:107280000004CF498860CE49403988600120CD494B
:1072900048602F20FCF7C8FF10BDF0B5024628203B
:1072A0005043C94B1B68C118C8480068401C0028DF
:1072B00002D1C648026059E0C4488B68006828249F
:1072C0006043C14C246800198068834217D8BF48C6
:1072D000006828235843BC4B1B68C01880688B6823
:1072E000C31ABA48006828246043B74C24680019C0
:1072F0008360B64800684862B448026036E08B6834
:10730000B24D2C6828680DE028254543AE4E3668FE
:10731000AD19AD685B1B044628254543AA4E366867
:10732000AD19686A451C002D07D028254543A64E97
:107330003668AD19AD689D42E6D3451C002D0CD0D2
:1073400028254543A04E3668AD19AD68EE1A2825AC
:1073500045439D4F3F68ED19AE608B60486228251C
:107360006543994E3668AD196A6200BFF0BD70B5CD
:107370000246964C2168084609E0904200D109E097
:10738000014628244443904D2D686419606A441CCA
:10739000002CF2D100BF441C002C00D170BD8142F2
:1073A00009D18A4C246828256C43874D2D686419BF
:1073B000646A864D2C6028244443834D2D686419EB
:1073C000A36828244443804D2D686419656A2824E5
:1073D0004C437D4E3668A419656228244C437A4D8F
:1073E0002D686419606A441C002C0CD02824444386
:1073F000754D2D686419A468E51828244443724E1D
:107400003668A419A56000BFC8E710B5112000F0C8
:10741000FAFB10BD10B5142000F0F5FB10BD70B5DF
:1074200004466B480068002813D0694A216AE06965
:1074300012689047054600BF2E46002E07D000BFB9
:1074400064A2FF2164313046FDF7EAFB00BF00BFB4
:1074500002E0E169206A884770BDF8B55B480068C2
:10746000401C00283AD0002700F006FC044665487E
:107470000168204600F003FC06465448056811E008
:1074800028206843504909684418A068B04200D9D0
:107490000BE0A068361AA068C719656A2046FFF796
:1074A000BEFF00BF681C0028EAD100BF5648007824
:1074B00056490978884209D154480078401CC0B226
:1074C00052490870022801D1002008704F48007806
:1074D00080004F490F50FFF79DFF00BFF8BD0146E8
:1074E00049480078494A127890421DD046480078B1
:1074F000401C454A107010460078022801D1002037
:107500001070414800788000414A105808603D4A98
:107510000868126880183B4A106010460068000234
:10752000000A1060012070470020086000BFFAE7E1
:10753000FEB526480068019036480078009074E057
:107540000098C000344909684418257869E018207B
:10755000684361680F18681CC5B2A078A84200D1C2
:1075600000253868022802D0032857D10EE02821D0
:1075700078684843144909684618307E002804D0CA
:107580007868FFF7F4FE0020307648E00CE00F4901
:107590000968282251430C4A126888180021017694
:1075A0000A4A416A116000BF08480068401C002870
:1075B000EDD134E01CED00E000E100E000150140F9
:1075C0004013014000100140E0200020EC2000208A
:1075D000002100202E2E5C2E2E5C2E2E5C2E2E5C8A
:1075E0002E2E5C536F757263655C6170705F636FA4
:1075F0006D6D6F6E5C6170705F74696D65722E6326
:1076000000000000F0200020FC200020FD200020D1
:10761000F4200020E4200020E820002000BF00BF6C
:1076200000BF6078A84292D100BF0098411EC9B245
:107630000091002884D1FE4801680198814201D060
:107640000120FEBD0020FCE7F0B50346002426E043
:10765000F74E366828277E43F64F3F68F019866854
:107660009E4203D98668F61A86601DE086689B1BD9
:1076700086683419002686600676ED4E3568EC4F34
:10768000466A3E604669002E08D00E193602360A58
:10769000C6604669066116684662156000BFE44828
:1076A0000068401C0028D3D100BFF0BDFEB50746DE
:1076B000DF4800680290E048007801906BE0019894
:1076C000C000DE49096845185DE0781C002807D035
:1076D0003E4628207043D74909684418676A23E06A
:1076E0002978182359436A6850182978491C297049
:1076F0002978AA78914201D1002129704668282171
:107700007143CC4A12688C180168012902D1217E8C
:10771000002900D037E08168E160C168216101691A
:1077200061614169216200BFC549E0680968401A8A
:107730000002000AC349884208D2C149E0680968CA
:1077400000F09DFA21694018A06011E0BC48E16892
:10775000006800F094FA009021690098814204D9F1
:1077600021690098081AA06001E00020A06000BF15
:107770000020E060206101202076801E606230469B
:10778000FFF78BFD00BF781C00289ED12878697810
:1077900088429AD100BF0198411EC9B201910028C8
:1077A0008DD1A34801680298814201D00120FEBD1D
:1077B0000020FCE7FEB505469D480068401C0028F7
:1077C00035D09B480068282148439A4909684018E9
:1077D000866800F051FA02909948046821460298A0
:1077E00000F04DFAC01C0190681C002801D1FFF781
:1077F00029FD0198B04201D2304600E001980419F9
:107800002402240A20469049086000BF00F034FAA0
:1078100000900299009800F032FAC71C20460299A5
:1078200000F02DFA874201D9FFF7EFFD01E0FFF7E5
:107830001EFDFEBDFEB50020C043019080480468D7
:107840007B4807686846FFF74AFE0546FFF770FE6B
:107850000646002D05D001AA21460098FFF7F4FE48
:1078600001260198FFF722FF002800D00126002EF4
:1078700002D03846FFF79EFFFEBD4170704770B5DD
:1078800002460B465078411C9078884200D1002176
:107890001078884201D1002070BD196050781826F8
:1078A000704355682C182046F6E7FFB581B00546B1
:1078B0000E461746E900614A126888186946FFF7C4
:1078C000DEFF0446002C02D1042005B0F0BD0120EB
:1078D0002060666000F0D0F9A060E7600498206145
:1078E0000A986061E900554A126888180099FFF704
:1078F000C4FFFFF78FFD0020E7E7F8B504460E460A
:10790000E1004E4A126888186946FFF7B8FF05463D
:10791000002D01D10420F8BD022028606E60E10036
:10792000464A126888180099FFF7A7FFFFF772FD13
:107930000020F0E738B50446E100404A1268881894
:107940006946FFF79CFF0546002D01D1042038BD94
:1079500003202860001F6860E100384A1268881818
:107960000099FFF78AFFFFF755FD0020EFE710B5FC
:107970000020364908600021344841608160C160C0
:1079800000203249403908604860FFF766FD10BDAD
:1079900010B5FFF74FFF10BDFFB581B00E4617467B
:1079A0001C4620468107890F002901D1012100E0F2
:1079B0000021002902D1072005B0F0BD002C01D123
:1079C0000720F9E7FFF753FC21490A98086021488E
:1079D00006701848046000250CE000212820684348
:1079E000144A1268115028206843124A12688018FD
:1079F00001766D1CB542F0DB28207043041903208A
:107A00000D4908700D480460183400250CE0E900A9
:107A10000A4A12688818002101704170877044601A
:107A2000182179430C196D1C032DF0DB002013E0A5
:107A3000EC200020E0200020E4200020E8200020AE
:107A4000F0200020FFFF7F00401501404011014061
:107A500000210020DC200020C0438B49086000206A
:107A60008A4908708A490870142000F0D3F803216D
:107A70001420FFF7A7FB142000F0BEF80198FFF7D1
:107A8000D8FB00F0F9F883490860002094E770B54E
:107A900003460C4680480068002801D1082070BDCC
:107AA000002A01D10720FAE7002B01D10720F6E7D1
:107AB00000211CE028204843774D2D6828580028D5
:107AC00014D1012528204843734E366835502820AC
:107AD0004843714D2D6840194460282048436E4D3D
:107AE0002D684019C26119600020D8E7491C6B4815
:107AF00000788142DEDB0420D1E710B500F092F877
:107B0000012802D0032804D101E0002403E001246D
:107B100001E0022400BF00BF204610BDFEB50446B0
:107B20000D4616465C480068002801D10820FEBDBD
:107B30005A480078844201D2052D01D20720F6E789
:107B400028206043544909680858012801D00820BA
:107B5000EDE7282060435049096840184068012833
:107B600001D1284600E000200746FFF7C6FF3B464C
:107B70002A46214600960190FFF797FED7E770B599
:107B8000044645480068002801D1082070BD4348DC
:107B90000078844201D30720F8E7282060433E495B
:107BA00009680858012801D00820EFE7FFF7A5FF72
:107BB00005462146FFF7A1FEE8E710B53648006804
:107BC000002801D1082010BDFFF797FF0446FFF7FA
:107BD000B1FEF8E710B5044600F04EF82060002032
:107BE00010BD70B505460E4614463146284600F0D5
:107BF00046F82060002070BDC206D20E01219140DF
:107C0000274A11607047C206D20E01219140254AD1
:107C100011607047C206D20E01219140214A803284
:107C20001160704710B520484068C105C90D002992
:107C300020D00A46103A104600280DDA1A4B1C33A1
:107C40000407240F083CA408A4001B598407E40E71
:107C5000E3401B069B0F0BE0114B032424021B196E
:107C60008408A4001B598407E40EE3401B069B0F05
:107C7000D8B210BD0420FCE70C48406870470246AB
:107C8000501A0002000A7047EC200020FC2000205F
:107C9000FD200020F0200020E0200020DC2000203B
:107CA00000E100E000E200E000ED00E0001501402E
:107CB000F8B5042A2CD3830712D00B78491C037023
:107CC000401C521E83070BD00B78491C0370401CCC
:107CD000521E830704D00B78491C0370401C521EAF
:107CE0008B079B0F05D0C91ADF002023DE1B08C9B4
:107CF0000AE0FCF7A9FAF8BD1D4608C9FD401C467C
:107D0000B4402C4310C0121F042AF5D2F308C91A3C
:107D1000521EF0D40B78491C0370401C521EEAD44A
:107D20000B78491C0370401C012AE4D409780170C7
:107D3000F8BD01E004C0091F0429FBD28B0701D55F
:107D40000280801CC90700D00270704700290BD048
:107D5000C30702D00270401C491E022904D38307C6
:107D600002D50280801C891EE3E70022EEE7002294
:107D7000DFE7002203098B422CD3030A8B4211D385
:107D800000239C464EE003460B433CD400224308AC
:107D90008B4231D303098B421CD3030A8B4201D39C
:107DA00094463FE0C3098B4201D3CB01C01A524134
:107DB00083098B4201D38B01C01A524143098B4284
:107DC00001D34B01C01A524103098B4201D30B016D
:107DD000C01A5241C3088B4201D3CB00C01A524192
:107DE00083088B4201D38B00C01A524143088B4257
:107DF00001D34B00C01A5241411A00D201465241F0
:107E0000104670475DE0CA0F00D04942031000D30E
:107E10004042534000229C4603098B422DD3030A63
:107E20008B4212D3FC22890112BA030A8B420CD373
:107E3000890192118B4208D3890192118B4204D39C
:107E400089013AD0921100E08909C3098B4201D31C
:107E5000CB01C01A524183098B4201D38B01C01A56
:107E6000524143098B4201D34B01C01A52410309CD
:107E70008B4201D30B01C01A5241C3088B4201D37C
:107E8000CB00C01A524183088B4201D38B00C01A29
:107E90005241D9D243088B4201D34B00C01A524100
:107EA000411A00D20146634652415B10104601D38D
:107EB0004042002B00D54942704763465B1000D317
:107EC000404201B50020C046C04602BD7047704721
:107ED0007047000070B5FF242404C609FF25264022
:107EE00001352E43C209CB090546224023404D40AF
:107EF000002A6BD0002B69D0A24267D0A34265D084
:107F0000002D00DA32460124E40521432043090212
:107F10000002090AD21A000A4B0C7F24E31A434CD0
:107F20007C44E35C7D242404121914145B00A21821
:107F3000884201D3521C00E0400049420C465C4399
:107F400024115C43DB016415E318040A5C43C50299
:107F5000200D0C4644436419250A5D432303EC0CB1
:107F60000D46654300030019EB184C42A34201D3B0
:107F70005B18401CD4052018002B07D05B00C918E3
:107F800004D3401C002901D1400840003F2189044E
:107F90008A4209D3002A08DC1106090F04D0032104
:107FA00049074018C00FC00770BD012241001206EA
:107FB00089187F2252069142F6D205214907C8420C
:107FC00001D5901070BDFF20C00570BD002D00DAF6
:107FD0003246174EA24207D2A34205D21802000E23
:107FE00017D0E80FC00770BDFF2443002406A3424A
:107FF00016D84900A14213D8A34201D1A1420FD003
:10800000A14201D1002101E041004908D005084307
:1080100070BD1002000E03D0FF200243D00570BDDA
:10802000304670BD48404140484053E7D002000010
:108030000000C07F01460002CA1504D00123DB07FF
:108040001843002A09DB9E239A1A01D4D0407047B6
:10805000FF2248001206904201D900207047C8173D
:10806000C04370471F22030C02D10F2200041CD012
:10807000030E01D10002083A030F01D10001121FC3
:10808000830F01D18000921E002801DB4000521EA8
:10809000D2055118021251181922904004D3491CDC
:1080A000002801D14908490008467047C10FC90797
:1080B00000D04042012292071143D3E701218907F2
:1080C000D0E7754600F022F8AE46050069465346F3
:1080D000C008C000854618B020B5FCF7E1F860BCC8
:1080E00000274908B6460026C0C5C0C5C0C5C0C5E2
:1080F000C0C5C0C5C0C5C0C5403D49008D4670471C
:108100000446C046C0462046FCF727F800487047A2
:10811000D823002001491820ABBEFEE7260002004C
:108120007047000070B5420064414B005C41120E84
:1081300039D01B0E38D0FF2A3CD0FF2B3AD040025A
:108140004902400A490A060045184E43000A090A36
:10815000D2184843ED017F3A0104731A4019190CF3
:108160004318990F04D001215B0849075B1A521C80
:10817000D80904D3401CF50301D19D0607D0FF2A7E
:1081800008D2D50506D0E4072043401970BD01256B
:10819000A843F4E7002A01DCE00770BD2402FF20B9
:1081A0002043C00570BD1B0EFF2A03D0FF2B01D05A
:1081B000E00770BDFF2645003606B54206D84D00E3
:1081C000B54203D8D218FF2A00D0E7E7004870BDB7
:1081D0000000C07F01000000341278560090CDAB43
:1081E000EFCD00009ECADC240EE5A9E093F3A3B511
:1081F0000000406E8182838485868788898B8C8D80
:108200008E8F919293959697999A9C9D9FA0A2A3E9
:10821000A5A7A8AAACAEB0B2B3B5B7B9BCBEC0C230
:10822000C5C7C9CCCED1D4D7D9DCDFE2E6E9ECF0C2
:10823000F3F7FAFE54820100002000200401000040
:108240000441010058830100042100203413000080
:10825000204101000024F4000000000000000000A4
:10826000000000000000000000000000000000000E
:108270000000FFFF00000000000000000000000000
:1082800000000000000000000100000000000000ED
:1082900000000000000000000000000200000000DC
:1082A00000000000341278560090CDABEFCD0000F6
:1082B00000000000000000000000000000000000BE
:1082C00000000000000000000000000000000000AE
:1082D000000000000000000000000000D20FD20FDC
:1082E000D20FD20FD20FD20FD20FD20F0000000048
:1082F000000000000000000000123456780000006A
:10830000000000000000000000000000000000006D
:10831000000000000000000000000000000000005D
:10832000000000000000000000000000000000004D
:10833000000000000000000000000000000000003D
:10834000000000000000000000000000000000002D
:08835000000000000000000025
:04000005000140C1F5
:00000001FF
